{
  "contractName": "arene",
  "abi": [
    {
      "anonymous": false,
      "inputs": [
        {
          "indexed": false,
          "internalType": "uint256",
          "name": "acheteurId",
          "type": "uint256"
        }
      ],
      "name": "declaredAcheteur",
      "type": "event"
    },
    {
      "constant": true,
      "inputs": [
        {
          "internalType": "uint256",
          "name": "",
          "type": "uint256"
        }
      ],
      "name": "Acheteurs",
      "outputs": [
        {
          "internalType": "address",
          "name": "utilisateur",
          "type": "address"
        },
        {
          "internalType": "string",
          "name": "name",
          "type": "string"
        },
        {
          "internalType": "uint256",
          "name": "money",
          "type": "uint256"
        }
      ],
      "payable": false,
      "stateMutability": "view",
      "type": "function"
    },
    {
      "constant": true,
      "inputs": [],
      "name": "ERC721address",
      "outputs": [
        {
          "internalType": "address",
          "name": "",
          "type": "address"
        }
      ],
      "payable": false,
      "stateMutability": "view",
      "type": "function"
    },
    {
      "constant": true,
      "inputs": [],
      "name": "Ranchaddress",
      "outputs": [
        {
          "internalType": "address",
          "name": "",
          "type": "address"
        }
      ],
      "payable": false,
      "stateMutability": "view",
      "type": "function"
    },
    {
      "constant": false,
      "inputs": [
        {
          "internalType": "string",
          "name": "_name",
          "type": "string"
        },
        {
          "internalType": "uint256",
          "name": "_money",
          "type": "uint256"
        },
        {
          "internalType": "uint256[]",
          "name": "_possession",
          "type": "uint256[]"
        }
      ],
      "name": "declareAcheteur",
      "outputs": [],
      "payable": false,
      "stateMutability": "nonpayable",
      "type": "function"
    },
    {
      "constant": false,
      "inputs": [
        {
          "internalType": "uint256",
          "name": "tokenId",
          "type": "uint256"
        }
      ],
      "name": "depot",
      "outputs": [],
      "payable": false,
      "stateMutability": "nonpayable",
      "type": "function"
    },
    {
      "constant": false,
      "inputs": [
        {
          "internalType": "uint256",
          "name": "tokenId",
          "type": "uint256"
        }
      ],
      "name": "retrait",
      "outputs": [],
      "payable": false,
      "stateMutability": "nonpayable",
      "type": "function"
    },
    {
      "constant": false,
      "inputs": [
        {
          "internalType": "uint256",
          "name": "tokenId",
          "type": "uint256"
        },
        {
          "internalType": "uint256",
          "name": "price",
          "type": "uint256"
        }
      ],
      "name": "miseEnVente",
      "outputs": [],
      "payable": false,
      "stateMutability": "nonpayable",
      "type": "function"
    },
    {
      "constant": false,
      "inputs": [
        {
          "internalType": "uint256",
          "name": "acheteurId",
          "type": "uint256"
        },
        {
          "internalType": "uint256",
          "name": "vendeurId",
          "type": "uint256"
        },
        {
          "internalType": "uint256",
          "name": "tokenId",
          "type": "uint256"
        }
      ],
      "name": "achat",
      "outputs": [],
      "payable": false,
      "stateMutability": "nonpayable",
      "type": "function"
    },
    {
      "constant": false,
      "inputs": [
        {
          "internalType": "uint256",
          "name": "tokenMale",
          "type": "uint256"
        },
        {
          "internalType": "uint256",
          "name": "tokenFemelle",
          "type": "uint256"
        },
        {
          "internalType": "string",
          "name": "name",
          "type": "string"
        },
        {
          "internalType": "bool",
          "name": "sort",
          "type": "bool"
        }
      ],
      "name": "reproduction",
      "outputs": [],
      "payable": false,
      "stateMutability": "nonpayable",
      "type": "function"
    },
    {
      "constant": false,
      "inputs": [
        {
          "internalType": "uint256",
          "name": "tokenId1",
          "type": "uint256"
        },
        {
          "internalType": "uint256",
          "name": "tokenId2",
          "type": "uint256"
        }
      ],
      "name": "bagarre",
      "outputs": [],
      "payable": false,
      "stateMutability": "nonpayable",
      "type": "function"
    }
  ],
  "bytecode": "0x60806040526000809054906101000a900473ffffffffffffffffffffffffffffffffffffffff16600260006101000a81548173ffffffffffffffffffffffffffffffffffffffff021916908373ffffffffffffffffffffffffffffffffffffffff160217905550600160009054906101000a900473ffffffffffffffffffffffffffffffffffffffff16600360006101000a81548173ffffffffffffffffffffffffffffffffffffffff021916908373ffffffffffffffffffffffffffffffffffffffff1602179055503480156100d557600080fd5b506116ed806100e56000396000f3fe608060405234801561001057600080fd5b506004361061009e5760003560e01c8063ab9371ec11610066578063ab9371ec14610428578063b7171a2e14610456578063bb4a5489146104a0578063e5c3ba3f146104ea578063f0b49787146105225761009e565b80630ce68a19146100a357806317990c90146100d15780631f0669f8146101b25780638178204f146101f4578063913c12421461034d575b600080fd5b6100cf600480360360208110156100b957600080fd5b810190808035906020019092919050505061055a565b005b6100fd600480360360208110156100e757600080fd5b8101908080359060200190929190505050610652565b604051808473ffffffffffffffffffffffffffffffffffffffff1673ffffffffffffffffffffffffffffffffffffffff16815260200180602001838152602001828103825284818151815260200191508051906020019080838360005b8381101561017557808201518184015260208101905061015a565b50505050905090810190601f1680156101a25780820380516001836020036101000a031916815260200191505b5094505050505060405180910390f35b6101f2600480360360608110156101c857600080fd5b81019080803590602001909291908035906020019092919080359060200190929190505050610741565b005b61034b6004803603606081101561020a57600080fd5b810190808035906020019064010000000081111561022757600080fd5b82018360208201111561023957600080fd5b8035906020019184600183028401116401000000008311171561025b57600080fd5b91908080601f016020809104026020016040519081016040528093929190818152602001838380828437600081840152601f19601f82011690508083019250505050505050919291929080359060200190929190803590602001906401000000008111156102c857600080fd5b8201836020820111156102da57600080fd5b803590602001918460208302840111640100000000831117156102fc57600080fd5b919080806020026020016040519081016040528093929190818152602001838360200280828437600081840152601f19601f820116905080830192505050505050509192919290505050610c29565b005b6104266004803603608081101561036357600080fd5b8101908080359060200190929190803590602001909291908035906020019064010000000081111561039457600080fd5b8201836020820111156103a657600080fd5b803590602001918460018302840111640100000000831117156103c857600080fd5b91908080601f016020809104026020016040519081016040528093929190818152602001838380828437600081840152601f19601f820116905080830192505050505050509192919290803515159060200190929190505050610d8f565b005b6104546004803603602081101561043e57600080fd5b8101908080359060200190929190505050610ea3565b005b61045e610f9b565b604051808273ffffffffffffffffffffffffffffffffffffffff1673ffffffffffffffffffffffffffffffffffffffff16815260200191505060405180910390f35b6104a8610fc0565b604051808273ffffffffffffffffffffffffffffffffffffffff1673ffffffffffffffffffffffffffffffffffffffff16815260200191505060405180910390f35b6105206004803603604081101561050057600080fd5b810190808035906020019092919080359060200190929190505050610fe6565b005b6105586004803603604081101561053857600080fd5b81019080803590602001909291908035906020019092919050505061107f565b005b600260009054906101000a900473ffffffffffffffffffffffffffffffffffffffff1673ffffffffffffffffffffffffffffffffffffffff166323b872dd3330846040518463ffffffff1660e01b8152600401808473ffffffffffffffffffffffffffffffffffffffff1673ffffffffffffffffffffffffffffffffffffffff1681526020018373ffffffffffffffffffffffffffffffffffffffff1673ffffffffffffffffffffffffffffffffffffffff1681526020018281526020019350505050600060405180830381600087803b15801561063757600080fd5b505af115801561064b573d6000803e3d6000fd5b5050505050565b6004818154811061065f57fe5b90600052602060002090600402016000915090508060000160009054906101000a900473ffffffffffffffffffffffffffffffffffffffff1690806001018054600181600116156101000203166002900480601f0160208091040260200160405190810160405280929190818152602001828054600181600116156101000203166002900480156107315780601f1061070657610100808354040283529160200191610731565b820191906000526020600020905b81548152906001019060200180831161071457829003601f168201915b5050505050908060020154905083565b6000600360009054906101000a900473ffffffffffffffffffffffffffffffffffffffff1673ffffffffffffffffffffffffffffffffffffffff1663e7572230836040518263ffffffff1660e01b81526004018082815260200191505060206040518083038186803b1580156107b657600080fd5b505afa1580156107ca573d6000803e3d6000fd5b505050506040513d60208110156107e057600080fd5b8101908080519060200190929190505050116107fb57600080fd5b600360009054906101000a900473ffffffffffffffffffffffffffffffffffffffff1673ffffffffffffffffffffffffffffffffffffffff1663e7572230826040518263ffffffff1660e01b81526004018082815260200191505060206040518083038186803b15801561086e57600080fd5b505afa158015610882573d6000803e3d6000fd5b505050506040513d602081101561089857600080fd5b8101908080519060200190929190505050600484815481106108b657fe5b90600052602060002090600402016002015410156108d357600080fd5b600260009054906101000a900473ffffffffffffffffffffffffffffffffffffffff1673ffffffffffffffffffffffffffffffffffffffff166323b872dd6004848154811061091e57fe5b906000526020600020906004020160000160009054906101000a900473ffffffffffffffffffffffffffffffffffffffff166004868154811061095d57fe5b906000526020600020906004020160000160009054906101000a900473ffffffffffffffffffffffffffffffffffffffff16846040518463ffffffff1660e01b8152600401808473ffffffffffffffffffffffffffffffffffffffff1673ffffffffffffffffffffffffffffffffffffffff1681526020018373ffffffffffffffffffffffffffffffffffffffff1673ffffffffffffffffffffffffffffffffffffffff1681526020018281526020019350505050600060405180830381600087803b158015610a2c57600080fd5b505af1158015610a40573d6000803e3d6000fd5b50505050600360009054906101000a900473ffffffffffffffffffffffffffffffffffffffff1673ffffffffffffffffffffffffffffffffffffffff1663e7572230826040518263ffffffff1660e01b81526004018082815260200191505060206040518083038186803b158015610ab757600080fd5b505afa158015610acb573d6000803e3d6000fd5b505050506040513d6020811015610ae157600080fd5b810190808051906020019092919050505060048481548110610aff57fe5b9060005260206000209060040201600201540360048481548110610b1f57fe5b906000526020600020906004020160020181905550600360009054906101000a900473ffffffffffffffffffffffffffffffffffffffff1673ffffffffffffffffffffffffffffffffffffffff1663e7572230826040518263ffffffff1660e01b81526004018082815260200191505060206040518083038186803b158015610ba757600080fd5b505afa158015610bbb573d6000803e3d6000fd5b505050506040513d6020811015610bd157600080fd5b810190808051906020019092919050505060048381548110610bef57fe5b9060005260206000209060040201600201540160048381548110610c0f57fe5b906000526020600020906004020160020181905550505050565b610c31611588565b33816000019073ffffffffffffffffffffffffffffffffffffffff16908173ffffffffffffffffffffffffffffffffffffffff16815250508381602001819052508281604001818152505081816060018190525060016004829080600181540180825580915050906001820390600052602060002090600402016000909192909190915060008201518160000160006101000a81548173ffffffffffffffffffffffffffffffffffffffff021916908373ffffffffffffffffffffffffffffffffffffffff1602179055506020820151816001019080519060200190610d189291906115c6565b50604082015181600201556060820151816003019080519060200190610d3f929190611646565b5050505050600060016004805490500390507f42e02143abd52273e88c2a94e4770eeda437af8cf1575335eca0aa39873fb267816040518082815260200191505060405180910390a15050505050565b600360009054906101000a900473ffffffffffffffffffffffffffffffffffffffff1673ffffffffffffffffffffffffffffffffffffffff1663a848b9a3848685856040518563ffffffff1660e01b8152600401808581526020018481526020018060200183151515158152602001828103825284818151815260200191508051906020019080838360005b83811015610e36578082015181840152602081019050610e1b565b50505050905090810190601f168015610e635780820380516001836020036101000a031916815260200191505b5095505050505050600060405180830381600087803b158015610e8557600080fd5b505af1158015610e99573d6000803e3d6000fd5b5050505050505050565b600260009054906101000a900473ffffffffffffffffffffffffffffffffffffffff1673ffffffffffffffffffffffffffffffffffffffff166323b872dd3033846040518463ffffffff1660e01b8152600401808473ffffffffffffffffffffffffffffffffffffffff1673ffffffffffffffffffffffffffffffffffffffff1681526020018373ffffffffffffffffffffffffffffffffffffffff1673ffffffffffffffffffffffffffffffffffffffff1681526020018281526020019350505050600060405180830381600087803b158015610f8057600080fd5b505af1158015610f94573d6000803e3d6000fd5b5050505050565b6000809054906101000a900473ffffffffffffffffffffffffffffffffffffffff1681565b600160009054906101000a900473ffffffffffffffffffffffffffffffffffffffff1681565b600360009054906101000a900473ffffffffffffffffffffffffffffffffffffffff1673ffffffffffffffffffffffffffffffffffffffff16634420b08f83836040518363ffffffff1660e01b81526004018083815260200182815260200192505050600060405180830381600087803b15801561106357600080fd5b505af1158015611077573d6000803e3d6000fd5b505050505050565b600360009054906101000a900473ffffffffffffffffffffffffffffffffffffffff1673ffffffffffffffffffffffffffffffffffffffff1663e53fbda6826040518263ffffffff1660e01b81526004018082815260200191505060206040518083038186803b1580156110f257600080fd5b505afa158015611106573d6000803e3d6000fd5b505050506040513d602081101561111c57600080fd5b8101908080519060200190929190505050600360009054906101000a900473ffffffffffffffffffffffffffffffffffffffff1673ffffffffffffffffffffffffffffffffffffffff1663e53fbda6846040518263ffffffff1660e01b81526004018082815260200191505060206040518083038186803b1580156111a057600080fd5b505afa1580156111b4573d6000803e3d6000fd5b505050506040513d60208110156111ca57600080fd5b8101908080519060200190929190505050106113b457600360009054906101000a900473ffffffffffffffffffffffffffffffffffffffff1673ffffffffffffffffffffffffffffffffffffffff1663ec9b6db9826040518263ffffffff1660e01b815260040180828152602001915050600060405180830381600087803b15801561125557600080fd5b505af1158015611269573d6000803e3d6000fd5b50505050600360009054906101000a900473ffffffffffffffffffffffffffffffffffffffff1673ffffffffffffffffffffffffffffffffffffffff1663eb3f6ff483600360009054906101000a900473ffffffffffffffffffffffffffffffffffffffff1673ffffffffffffffffffffffffffffffffffffffff1663e53fbda6856040518263ffffffff1660e01b81526004018082815260200191505060206040518083038186803b15801561131f57600080fd5b505afa158015611333573d6000803e3d6000fd5b505050506040513d602081101561134957600080fd5b81019080805190602001909291905050506040518363ffffffff1660e01b81526004018083815260200182815260200192505050600060405180830381600087803b15801561139757600080fd5b505af11580156113ab573d6000803e3d6000fd5b50505050611584565b600360009054906101000a900473ffffffffffffffffffffffffffffffffffffffff1673ffffffffffffffffffffffffffffffffffffffff1663ec9b6db9836040518263ffffffff1660e01b815260040180828152602001915050600060405180830381600087803b15801561142957600080fd5b505af115801561143d573d6000803e3d6000fd5b50505050600360009054906101000a900473ffffffffffffffffffffffffffffffffffffffff1673ffffffffffffffffffffffffffffffffffffffff1663eb3f6ff482600360009054906101000a900473ffffffffffffffffffffffffffffffffffffffff1673ffffffffffffffffffffffffffffffffffffffff1663e53fbda6866040518263ffffffff1660e01b81526004018082815260200191505060206040518083038186803b1580156114f357600080fd5b505afa158015611507573d6000803e3d6000fd5b505050506040513d602081101561151d57600080fd5b81019080805190602001909291905050506040518363ffffffff1660e01b81526004018083815260200182815260200192505050600060405180830381600087803b15801561156b57600080fd5b505af115801561157f573d6000803e3d6000fd5b505050505b5050565b6040518060800160405280600073ffffffffffffffffffffffffffffffffffffffff1681526020016060815260200160008152602001606081525090565b828054600181600116156101000203166002900490600052602060002090601f016020900481019282601f1061160757805160ff1916838001178555611635565b82800160010185558215611635579182015b82811115611634578251825591602001919060010190611619565b5b5090506116429190611693565b5090565b828054828255906000526020600020908101928215611682579160200282015b82811115611681578251825591602001919060010190611666565b5b50905061168f9190611693565b5090565b6116b591905b808211156116b1576000816000905550600101611699565b5090565b9056fea265627a7a723158202653b6e8ed852a5d8ea99324335f14d9b37fd30ebf9a18d232365f4d6654a2b964736f6c634300050c0032",
  "source": "pragma solidity >=0.4.21 <0.6.0;\r\n\r\nimport \"./Ranch.sol\";\r\nimport \"./ERC721.sol\";\r\nimport \"./IERC721.sol\";\r\nimport \"../math/SafeMath.sol\";\r\n\r\ncontract arene {\r\n    using SafeMath for uint256;\r\n    address public ERC721address;\r\n    address public Ranchaddress;\r\n    ERC721 ERC721Instance = ERC721(ERC721address);\r\n    Ranch RanchInstance = Ranch(Ranchaddress); \r\n\r\n    struct Acheteur {\r\n        address utilisateur;\r\n        string name;\r\n        uint256 money;\r\n        uint[] possession;\r\n    }\r\n\r\n    Acheteur[] public Acheteurs;\r\n    event declaredAcheteur(uint acheteurId);\r\n\r\n    function declareAcheteur(string memory _name, uint256 _money, uint[] memory _possession) public {\r\n        Acheteur memory _Acheteur;\r\n        _Acheteur.utilisateur=msg.sender;\r\n        _Acheteur.name=_name;\r\n        _Acheteur.money=_money;\r\n        _Acheteur.possession=_possession;\r\n        Acheteurs.push(_Acheteur) -1;\r\n        uint acheteurId=Acheteurs.length-1;\r\n        emit declaredAcheteur(acheteurId);\r\n    }\r\n\r\n    function depot(uint tokenId) public {\r\n        // approve(to, tokenId);\r\n        ERC721Instance.transferFrom (msg.sender, address(this), tokenId);\r\n    }\r\n\r\n    function retrait(uint tokenId) public {\r\n        ERC721Instance.transferFrom (address(this), msg.sender, tokenId);\r\n    }\r\n\r\n    function miseEnVente(uint tokenId, uint256 price) public {\r\n        RanchInstance.putPrice(tokenId, price);\r\n    }\r\n\r\n    function achat(uint acheteurId, uint vendeurId, uint tokenId) public {\r\n        require (RanchInstance.getPrice(tokenId) >0 );\r\n        require (Acheteurs[acheteurId].money >= RanchInstance.getPrice(tokenId));\r\n        ERC721Instance.transferFrom(Acheteurs[vendeurId].utilisateur, Acheteurs[acheteurId].utilisateur, tokenId);\r\n        Acheteurs[acheteurId].money = Acheteurs[acheteurId].money - RanchInstance.getPrice(tokenId);\r\n        Acheteurs[vendeurId].money = Acheteurs[vendeurId].money + RanchInstance.getPrice(tokenId);\r\n    }\r\n\r\n    function reproduction(uint tokenMale, uint tokenFemelle, string memory name, bool sort /* oui car on peut choisir le sexe désormais*/) public {\r\n        RanchInstance.breedAnimal(tokenFemelle, tokenMale, name, sort);\r\n    }\r\n\r\n    function bagarre(uint tokenId1, uint tokenId2) public {\r\n        if (RanchInstance.getStrength(tokenId1) >= /* ici si il leur force est égal alors le numéro 1 gagne arbitrairement */ RanchInstance.getStrength(tokenId2)) {\r\n            RanchInstance.deadAnimal(tokenId2);\r\n            RanchInstance.addStrength(tokenId1, RanchInstance.getStrength(tokenId2));} // on ajoute le force du perdant au vainqueur\r\n        else {\r\n            RanchInstance.deadAnimal(tokenId1);\r\n            RanchInstance.addStrength(tokenId2, RanchInstance.getStrength(tokenId1));}\r\n    }\r\n\r\n}",
  "sourcePath": "C:/Users/Pierre ROUBIOL/Desktop/ESILV/A5_S9/Monnaie Numérique/Ranch/Ranch/contracts/Contrat.sol",
  "compiler": {
    "name": "solc",
    "version": "0.5.12+commit.7709ece9.Emscripten.clang"
  },
  "schemaVersion": "3.0.19",
  "updatedAt": "2019-12-10T20:52:55.694Z",
  "devdoc": {
    "methods": {}
  },
  "userdoc": {
    "methods": {}
  }
}